{
  "_format": "hh-sol-artifact-1",
  "contractName": "EventFactory",
  "sourceName": "contracts/EventFactory.sol",
  "abi": [
    {
      "inputs": [],
      "stateMutability": "nonpayable",
      "type": "constructor"
    },
    {
      "anonymous": false,
      "inputs": [
        {
          "indexed": true,
          "internalType": "uint256",
          "name": "eventId",
          "type": "uint256"
        }
      ],
      "name": "EventCanceled",
      "type": "event"
    },
    {
      "anonymous": false,
      "inputs": [
        {
          "indexed": true,
          "internalType": "uint256",
          "name": "eventId",
          "type": "uint256"
        },
        {
          "indexed": false,
          "internalType": "string",
          "name": "metadataCID",
          "type": "string"
        },
        {
          "indexed": false,
          "internalType": "string",
          "name": "ticketNFTMetadataBaseURI",
          "type": "string"
        },
        {
          "indexed": false,
          "internalType": "uint256",
          "name": "totalTickets",
          "type": "uint256"
        },
        {
          "indexed": true,
          "internalType": "address",
          "name": "organizer",
          "type": "address"
        }
      ],
      "name": "EventCreated",
      "type": "event"
    },
    {
      "inputs": [
        {
          "internalType": "uint256",
          "name": "eventId",
          "type": "uint256"
        }
      ],
      "name": "cancelEvent",
      "outputs": [],
      "stateMutability": "nonpayable",
      "type": "function"
    },
    {
      "inputs": [
        {
          "internalType": "uint256",
          "name": "",
          "type": "uint256"
        }
      ],
      "name": "categories",
      "outputs": [
        {
          "internalType": "string",
          "name": "",
          "type": "string"
        }
      ],
      "stateMutability": "view",
      "type": "function"
    },
    {
      "inputs": [
        {
          "internalType": "string",
          "name": "_metadataCID",
          "type": "string"
        },
        {
          "internalType": "string",
          "name": "_ticketNFTMetadataBaseURI",
          "type": "string"
        },
        {
          "internalType": "uint256",
          "name": "_totalTickets",
          "type": "uint256"
        },
        {
          "internalType": "uint256",
          "name": "_ticketPrice",
          "type": "uint256"
        }
      ],
      "name": "createEvent",
      "outputs": [],
      "stateMutability": "nonpayable",
      "type": "function"
    },
    {
      "inputs": [
        {
          "internalType": "uint256",
          "name": "",
          "type": "uint256"
        }
      ],
      "name": "events",
      "outputs": [
        {
          "internalType": "uint256",
          "name": "eventId",
          "type": "uint256"
        },
        {
          "internalType": "string",
          "name": "metadataCID",
          "type": "string"
        },
        {
          "internalType": "string",
          "name": "ticketNFTMetadataBaseURI",
          "type": "string"
        },
        {
          "internalType": "uint256",
          "name": "totalTickets",
          "type": "uint256"
        },
        {
          "internalType": "uint256",
          "name": "soldTickets",
          "type": "uint256"
        },
        {
          "internalType": "address",
          "name": "organizer",
          "type": "address"
        },
        {
          "internalType": "bool",
          "name": "canceled",
          "type": "bool"
        }
      ],
      "stateMutability": "view",
      "type": "function"
    },
    {
      "inputs": [],
      "name": "getAllCategories",
      "outputs": [
        {
          "internalType": "string[]",
          "name": "",
          "type": "string[]"
        }
      ],
      "stateMutability": "view",
      "type": "function"
    },
    {
      "inputs": [
        {
          "internalType": "uint256",
          "name": "eventId",
          "type": "uint256"
        }
      ],
      "name": "getEventDetails",
      "outputs": [
        {
          "internalType": "uint256",
          "name": "eventId_",
          "type": "uint256"
        },
        {
          "internalType": "string",
          "name": "metadataCID",
          "type": "string"
        },
        {
          "internalType": "uint256",
          "name": "totalTickets",
          "type": "uint256"
        },
        {
          "internalType": "uint256",
          "name": "soldTickets",
          "type": "uint256"
        },
        {
          "internalType": "address",
          "name": "organizer",
          "type": "address"
        },
        {
          "internalType": "bool",
          "name": "canceled",
          "type": "bool"
        }
      ],
      "stateMutability": "view",
      "type": "function"
    },
    {
      "inputs": [
        {
          "internalType": "uint256",
          "name": "eventId",
          "type": "uint256"
        }
      ],
      "name": "getTicketMetadataBaseURI",
      "outputs": [
        {
          "internalType": "string",
          "name": "",
          "type": "string"
        }
      ],
      "stateMutability": "view",
      "type": "function"
    },
    {
      "inputs": [],
      "name": "nextEventId",
      "outputs": [
        {
          "internalType": "uint256",
          "name": "",
          "type": "uint256"
        }
      ],
      "stateMutability": "view",
      "type": "function"
    },
    {
      "inputs": [
        {
          "internalType": "address",
          "name": "_ticketSale",
          "type": "address"
        }
      ],
      "name": "setTicketSale",
      "outputs": [],
      "stateMutability": "nonpayable",
      "type": "function"
    },
    {
      "inputs": [],
      "name": "ticketSale",
      "outputs": [
        {
          "internalType": "contract TicketSale",
          "name": "",
          "type": "address"
        }
      ],
      "stateMutability": "view",
      "type": "function"
    },
    {
      "inputs": [
        {
          "internalType": "uint256",
          "name": "eventId",
          "type": "uint256"
        },
        {
          "internalType": "uint256",
          "name": "amount",
          "type": "uint256"
        }
      ],
      "name": "updateSoldTickets",
      "outputs": [],
      "stateMutability": "nonpayable",
      "type": "function"
    }
  ],
  "bytecode": "0x60806040526040518061032001604052806040518060400160405280600f81526020017f4954202620546563686e6f6c6f6779000000000000000000000000000000000081525081526020016040518060400160405280600581526020017f4d7573696300000000000000000000000000000000000000000000000000000081525081526020016040518060400160405280600981526020017f466573746976616c73000000000000000000000000000000000000000000000081525081526020016040518060400160405280600681526020017f53706f727473000000000000000000000000000000000000000000000000000081525081526020016040518060400160405280601b81526020017f427573696e657373202620456e7472657072656e65757273686970000000000081525081526020016040518060400160405280601481526020017f456475636174696f6e2026204c6561726e696e6700000000000000000000000081525081526020016040518060400160405280601181526020017f4865616c746820262057656c6c6e65737300000000000000000000000000000081525081526020016040518060400160405280600e81526020017f4172747320262043756c7475726500000000000000000000000000000000000081525081526020016040518060400160405280600f81526020017f466f6f642026204265766572616765000000000000000000000000000000000081525081526020016040518060400160405280601481526020017f536369656e6365202620496e6e6f766174696f6e00000000000000000000000081525081526020016040518060400160405280601081526020017f47616d696e672026206553706f7274730000000000000000000000000000000081525081526020016040518060400160405280601581526020017f46696e616e6365202620496e766573746d656e7473000000000000000000000081525081526020016040518060400160405280601381526020017f4e6574776f726b696e67202620536f6369616c0000000000000000000000000081525081526020016040518060400160405280601781526020017f4d61726b6574696e672026204164766572746973696e6700000000000000000081525081526020016040518060400160405280601381526020017f4e6f6e70726f666974202620436861726974790000000000000000000000000081525081526020016040518060400160405280601881526020017f4c656164657273686970202620446576656c6f706d656e74000000000000000081525081526020016040518060400160405280601c81526020017f5375737461696e6162696c697479202620456e7669726f6e6d656e740000000081525081526020016040518060400160405280602081526020017f536f6369616c204d656469612026204469676974616c204d61726b6574696e6781525081526020016040518060400160405280601381526020017f4c6966657374796c6520262046617368696f6e0000000000000000000000000081525081526020016040518060400160405280601581526020017f52656c6967696f757320262053706972697475616c000000000000000000000081525081526020016040518060400160405280601281526020017f54726176656c202620416476656e74757265000000000000000000000000000081525081526020016040518060400160405280601b81526020017f4175746f6d6f746976652026205472616e73706f72746174696f6e000000000081525081526020016040518060400160405280601681526020017f5265616c2045737461746520262050726f70657274790000000000000000000081525081526020016040518060400160405280601a81526020017f5075626c696320536563746f72202620476f7665726e6d656e7400000000000081525081526020016040518060400160405280600581526020017f4f746865720000000000000000000000000000000000000000000000000000008152508152506000906019620005e3929190620005f8565b50348015620005f157600080fd5b5062000a46565b82805482825590600052602060002090810192821562000645579160200282015b82811115620006445782518290816200063391906200095f565b509160200191906001019062000619565b5b50905062000654919062000658565b5090565b5b808211156200067c576000818162000672919062000680565b5060010162000659565b5090565b5080546200068e906200074e565b6000825580601f10620006a25750620006c3565b601f016020900490600052602060002090810190620006c29190620006c6565b5b50565b5b80821115620006e1576000816000905550600101620006c7565b5090565b600081519050919050565b7f4e487b7100000000000000000000000000000000000000000000000000000000600052604160045260246000fd5b7f4e487b7100000000000000000000000000000000000000000000000000000000600052602260045260246000fd5b600060028204905060018216806200076757607f821691505b6020821081036200077d576200077c6200071f565b5b50919050565b60008190508160005260206000209050919050565b60006020601f8301049050919050565b600082821b905092915050565b600060088302620007e77fffffffffffffffffffffffffffffffffffffffffffffffffffffffffffffffff82620007a8565b620007f38683620007a8565b95508019841693508086168417925050509392505050565b6000819050919050565b6000819050919050565b6000620008406200083a62000834846200080b565b62000815565b6200080b565b9050919050565b6000819050919050565b6200085c836200081f565b620008746200086b8262000847565b848454620007b5565b825550505050565b600090565b6200088b6200087c565b6200089881848462000851565b505050565b5b81811015620008c057620008b460008262000881565b6001810190506200089e565b5050565b601f8211156200090f57620008d98162000783565b620008e48462000798565b81016020851015620008f4578190505b6200090c620009038562000798565b8301826200089d565b50505b505050565b600082821c905092915050565b6000620009346000198460080262000914565b1980831691505092915050565b60006200094f838362000921565b9150826002028217905092915050565b6200096a82620006e5565b67ffffffffffffffff811115620009865762000985620006f0565b5b6200099282546200074e565b6200099f828285620008c4565b600060209050601f831160018114620009d75760008415620009c2578287015190505b620009ce858262000941565b86555062000a3e565b601f198416620009e78662000783565b60005b8281101562000a1157848901518255600182019150602085019450602081019050620009ea565b8683101562000a31578489015162000a2d601f89168262000921565b8355505b6001600288020188555050505b505050505050565b6121bc8062000a566000396000f3fe608060405234801561001057600080fd5b50600436106100a95760003560e01c8063880be9f111610071578063880be9f11461016a5780639f9d903a14610186578063bce062b9146101a4578063c6cdbe5e146101c0578063dadd0a57146101f0578063ec38d5a01461020e576100a9565b80630b791430146100ae57806315652d66146100e45780633f69babd1461011457806352d30f5a14610130578063697a3d211461014e575b600080fd5b6100c860048036038101906100c39190611172565b610243565b6040516100db979695949392919061129a565b60405180910390f35b6100fe60048036038101906100f99190611172565b6103c2565b60405161010b9190611317565b60405180910390f35b61012e60048036038101906101299190611172565b6104ae565b005b61013861063b565b6040516101459190611398565b60405180910390f35b610168600480360381019061016391906113df565b610661565b005b610184600480360381019061017f919061140c565b6107ea565b005b61018e6109cd565b60405161019b919061144c565b60405180910390f35b6101be60048036038101906101b9919061159c565b6109d3565b005b6101da60048036038101906101d59190611172565b610d4c565b6040516101e79190611317565b60405180910390f35b6101f8610df8565b6040516102059190611747565b60405180910390f35b61022860048036038101906102239190611172565b610ed1565b60405161023a96959493929190611769565b60405180910390f35b600260205280600052604060002060009150905080600001549080600101805461026c90611800565b80601f016020809104026020016040519081016040528092919081815260200182805461029890611800565b80156102e55780601f106102ba576101008083540402835291602001916102e5565b820191906000526020600020905b8154815290600101906020018083116102c857829003601f168201915b5050505050908060020180546102fa90611800565b80601f016020809104026020016040519081016040528092919081815260200182805461032690611800565b80156103735780601f1061034857610100808354040283529160200191610373565b820191906000526020600020905b81548152906001019060200180831161035657829003601f168201915b5050505050908060030154908060040154908060050160009054906101000a900473ffffffffffffffffffffffffffffffffffffffff16908060050160149054906101000a900460ff16905087565b60606001548210610408576040517f08c379a00000000000000000000000000000000000000000000000000000000081526004016103ff9061187d565b60405180910390fd5b60026000838152602001908152602001600020600201805461042990611800565b80601f016020809104026020016040519081016040528092919081815260200182805461045590611800565b80156104a25780601f10610477576101008083540402835291602001916104a2565b820191906000526020600020905b81548152906001019060200180831161048557829003601f168201915b50505050509050919050565b60006002600083815260200190815260200160002090503373ffffffffffffffffffffffffffffffffffffffff168160050160009054906101000a900473ffffffffffffffffffffffffffffffffffffffff1673ffffffffffffffffffffffffffffffffffffffff1614610557576040517f08c379a000000000000000000000000000000000000000000000000000000000815260040161054e906118e9565b60405180910390fd5b600154821061059b576040517f08c379a00000000000000000000000000000000000000000000000000000000081526004016105929061187d565b60405180910390fd5b8060050160149054906101000a900460ff16156105ed576040517f08c379a00000000000000000000000000000000000000000000000000000000081526004016105e490611955565b60405180910390fd5b60018160050160146101000a81548160ff021916908315150217905550817fceaf11772900fe569752a0207c8639fb8228eb8663456dc9eaa3a08f927a870560405160405180910390a25050565b600360009054906101000a900473ffffffffffffffffffffffffffffffffffffffff1681565b6000600154146106a6576040517f08c379a000000000000000000000000000000000000000000000000000000000815260040161069d906119e7565b60405180910390fd5b600073ffffffffffffffffffffffffffffffffffffffff16600360009054906101000a900473ffffffffffffffffffffffffffffffffffffffff1673ffffffffffffffffffffffffffffffffffffffff1614610737576040517f08c379a000000000000000000000000000000000000000000000000000000000815260040161072e90611a53565b60405180910390fd5b600073ffffffffffffffffffffffffffffffffffffffff168173ffffffffffffffffffffffffffffffffffffffff16036107a6576040517f08c379a000000000000000000000000000000000000000000000000000000000815260040161079d90611abf565b60405180910390fd5b80600360006101000a81548173ffffffffffffffffffffffffffffffffffffffff021916908373ffffffffffffffffffffffffffffffffffffffff16021790555050565b600360009054906101000a900473ffffffffffffffffffffffffffffffffffffffff1673ffffffffffffffffffffffffffffffffffffffff163373ffffffffffffffffffffffffffffffffffffffff161461087a576040517f08c379a000000000000000000000000000000000000000000000000000000000815260040161087190611b2b565b60405180910390fd5b60015482106108be576040517f08c379a00000000000000000000000000000000000000000000000000000000081526004016108b59061187d565b60405180910390fd5b6002600083815260200190815260200160002060050160149054906101000a900460ff1615610922576040517f08c379a000000000000000000000000000000000000000000000000000000000815260040161091990611b97565b60405180910390fd5b600260008381526020019081526020016000206003015481600260008581526020019081526020016000206004015461095b9190611be6565b111561099c576040517f08c379a000000000000000000000000000000000000000000000000000000000815260040161099390611c66565b60405180910390fd5b806002600084815260200190815260200160002060040160008282546109c29190611be6565b925050819055505050565b60015481565b60008211610a16576040517f08c379a0000000000000000000000000000000000000000000000000000000008152600401610a0d90611cf8565b60405180910390fd5b60008111610a59576040517f08c379a0000000000000000000000000000000000000000000000000000000008152600401610a5090611d64565b60405180910390fd5b600073ffffffffffffffffffffffffffffffffffffffff16600360009054906101000a900473ffffffffffffffffffffffffffffffffffffffff1673ffffffffffffffffffffffffffffffffffffffff1603610aea576040517f08c379a0000000000000000000000000000000000000000000000000000000008152600401610ae190611dd0565b60405180910390fd5b6000835111610b2e576040517f08c379a0000000000000000000000000000000000000000000000000000000008152600401610b2590611e3c565b60405180910390fd5b600060015490506040518060e00160405280828152602001868152602001858152602001848152602001600081526020013373ffffffffffffffffffffffffffffffffffffffff16815260200160001515815250600260006001548152602001908152602001600020600082015181600001556020820151816001019081610bb69190611ffe565b506040820151816002019081610bcc9190611ffe565b50606082015181600301556080820151816004015560a08201518160050160006101000a81548173ffffffffffffffffffffffffffffffffffffffff021916908373ffffffffffffffffffffffffffffffffffffffff16021790555060c08201518160050160146101000a81548160ff02191690831515021790555090505060016000815480929190610c5e906120d0565b9190505550600360009054906101000a900473ffffffffffffffffffffffffffffffffffffffff1673ffffffffffffffffffffffffffffffffffffffff1663dc68cba582846040518363ffffffff1660e01b8152600401610cc0929190612118565b600060405180830381600087803b158015610cda57600080fd5b505af1158015610cee573d6000803e3d6000fd5b505050503373ffffffffffffffffffffffffffffffffffffffff16817fa884fd49270875e0106f15dc6bcbe27a58e6166f2bd3c8587e4f3b03a2c0c9c9878787604051610d3d93929190612141565b60405180910390a35050505050565b60008181548110610d5c57600080fd5b906000526020600020016000915090508054610d7790611800565b80601f0160208091040260200160405190810160405280929190818152602001828054610da390611800565b8015610df05780601f10610dc557610100808354040283529160200191610df0565b820191906000526020600020905b815481529060010190602001808311610dd357829003601f168201915b505050505081565b60606000805480602002602001604051908101604052809291908181526020016000905b82821015610ec8578382906000526020600020018054610e3b90611800565b80601f0160208091040260200160405190810160405280929190818152602001828054610e6790611800565b8015610eb45780601f10610e8957610100808354040283529160200191610eb4565b820191906000526020600020905b815481529060010190602001808311610e9757829003601f168201915b505050505081526020019060010190610e1c565b50505050905090565b600060606000806000806001548710610f1f576040517f08c379a0000000000000000000000000000000000000000000000000000000008152600401610f169061187d565b60405180910390fd5b6000600260008981526020019081526020016000206040518060e001604052908160008201548152602001600182018054610f5990611800565b80601f0160208091040260200160405190810160405280929190818152602001828054610f8590611800565b8015610fd25780601f10610fa757610100808354040283529160200191610fd2565b820191906000526020600020905b815481529060010190602001808311610fb557829003601f168201915b50505050508152602001600282018054610feb90611800565b80601f016020809104026020016040519081016040528092919081815260200182805461101790611800565b80156110645780601f1061103957610100808354040283529160200191611064565b820191906000526020600020905b81548152906001019060200180831161104757829003601f168201915b5050505050815260200160038201548152602001600482015481526020016005820160009054906101000a900473ffffffffffffffffffffffffffffffffffffffff1673ffffffffffffffffffffffffffffffffffffffff1673ffffffffffffffffffffffffffffffffffffffff1681526020016005820160149054906101000a900460ff161515151581525050905080600001518160200151826060015183608001518460a001518560c001519650965096509650965096505091939550919395565b6000604051905090565b600080fd5b600080fd5b6000819050919050565b61114f8161113c565b811461115a57600080fd5b50565b60008135905061116c81611146565b92915050565b60006020828403121561118857611187611132565b5b60006111968482850161115d565b91505092915050565b6111a88161113c565b82525050565b600081519050919050565b600082825260208201905092915050565b60005b838110156111e85780820151818401526020810190506111cd565b60008484015250505050565b6000601f19601f8301169050919050565b6000611210826111ae565b61121a81856111b9565b935061122a8185602086016111ca565b611233816111f4565b840191505092915050565b600073ffffffffffffffffffffffffffffffffffffffff82169050919050565b60006112698261123e565b9050919050565b6112798161125e565b82525050565b60008115159050919050565b6112948161127f565b82525050565b600060e0820190506112af600083018a61119f565b81810360208301526112c18189611205565b905081810360408301526112d58188611205565b90506112e4606083018761119f565b6112f1608083018661119f565b6112fe60a0830185611270565b61130b60c083018461128b565b98975050505050505050565b600060208201905081810360008301526113318184611205565b905092915050565b6000819050919050565b600061135e6113596113548461123e565b611339565b61123e565b9050919050565b600061137082611343565b9050919050565b600061138282611365565b9050919050565b61139281611377565b82525050565b60006020820190506113ad6000830184611389565b92915050565b6113bc8161125e565b81146113c757600080fd5b50565b6000813590506113d9816113b3565b92915050565b6000602082840312156113f5576113f4611132565b5b6000611403848285016113ca565b91505092915050565b6000806040838503121561142357611422611132565b5b60006114318582860161115d565b92505060206114428582860161115d565b9150509250929050565b6000602082019050611461600083018461119f565b92915050565b600080fd5b600080fd5b7f4e487b7100000000000000000000000000000000000000000000000000000000600052604160045260246000fd5b6114a9826111f4565b810181811067ffffffffffffffff821117156114c8576114c7611471565b5b80604052505050565b60006114db611128565b90506114e782826114a0565b919050565b600067ffffffffffffffff82111561150757611506611471565b5b611510826111f4565b9050602081019050919050565b82818337600083830152505050565b600061153f61153a846114ec565b6114d1565b90508281526020810184848401111561155b5761155a61146c565b5b61156684828561151d565b509392505050565b600082601f83011261158357611582611467565b5b813561159384826020860161152c565b91505092915050565b600080600080608085870312156115b6576115b5611132565b5b600085013567ffffffffffffffff8111156115d4576115d3611137565b5b6115e08782880161156e565b945050602085013567ffffffffffffffff81111561160157611600611137565b5b61160d8782880161156e565b935050604061161e8782880161115d565b925050606061162f8782880161115d565b91505092959194509250565b600081519050919050565b600082825260208201905092915050565b6000819050602082019050919050565b600082825260208201905092915050565b6000611683826111ae565b61168d8185611667565b935061169d8185602086016111ca565b6116a6816111f4565b840191505092915050565b60006116bd8383611678565b905092915050565b6000602082019050919050565b60006116dd8261163b565b6116e78185611646565b9350836020820285016116f985611657565b8060005b85811015611735578484038952815161171685826116b1565b9450611721836116c5565b925060208a019950506001810190506116fd565b50829750879550505050505092915050565b6000602082019050818103600083015261176181846116d2565b905092915050565b600060c08201905061177e600083018961119f565b81810360208301526117908188611205565b905061179f604083018761119f565b6117ac606083018661119f565b6117b96080830185611270565b6117c660a083018461128b565b979650505050505050565b7f4e487b7100000000000000000000000000000000000000000000000000000000600052602260045260246000fd5b6000600282049050600182168061181857607f821691505b60208210810361182b5761182a6117d1565b5b50919050565b7f4576656e7420646f6573206e6f74206578697374000000000000000000000000600082015250565b60006118676014836111b9565b915061187282611831565b602082019050919050565b600060208201905081810360008301526118968161185a565b9050919050565b7f4f6e6c79206f7267616e697a65722063616e2063616e63656c00000000000000600082015250565b60006118d36019836111b9565b91506118de8261189d565b602082019050919050565b60006020820190508181036000830152611902816118c6565b9050919050565b7f4576656e7420616c72656164792063616e63656c656400000000000000000000600082015250565b600061193f6016836111b9565b915061194a82611909565b602082019050919050565b6000602082019050818103600083015261196e81611932565b9050919050565b7f43616e206f6e6c7920736574206265666f7265206576656e747320617265206360008201527f7265617465640000000000000000000000000000000000000000000000000000602082015250565b60006119d16026836111b9565b91506119dc82611975565b604082019050919050565b60006020820190508181036000830152611a00816119c4565b9050919050565b7f5469636b657453616c6520616c72656164792073657400000000000000000000600082015250565b6000611a3d6016836111b9565b9150611a4882611a07565b602082019050919050565b60006020820190508181036000830152611a6c81611a30565b9050919050565b7f496e76616c696420616464726573730000000000000000000000000000000000600082015250565b6000611aa9600f836111b9565b9150611ab482611a73565b602082019050919050565b60006020820190508181036000830152611ad881611a9c565b9050919050565b7f4f6e6c79205469636b657453616c650000000000000000000000000000000000600082015250565b6000611b15600f836111b9565b9150611b2082611adf565b602082019050919050565b60006020820190508181036000830152611b4481611b08565b9050919050565b7f4576656e742069732063616e63656c6564000000000000000000000000000000600082015250565b6000611b816011836111b9565b9150611b8c82611b4b565b602082019050919050565b60006020820190508181036000830152611bb081611b74565b9050919050565b7f4e487b7100000000000000000000000000000000000000000000000000000000600052601160045260246000fd5b6000611bf18261113c565b9150611bfc8361113c565b9250828201905080821115611c1457611c13611bb7565b5b92915050565b7f4e6f7420656e6f756768207469636b6574730000000000000000000000000000600082015250565b6000611c506012836111b9565b9150611c5b82611c1a565b602082019050919050565b60006020820190508181036000830152611c7f81611c43565b9050919050565b7f546f74616c207469636b657473206d757374206265206772656174657220746860008201527f616e207a65726f00000000000000000000000000000000000000000000000000602082015250565b6000611ce26027836111b9565b9150611ced82611c86565b604082019050919050565b60006020820190508181036000830152611d1181611cd5565b9050919050565b7f5469636b6574207072696365206d757374206265207365740000000000000000600082015250565b6000611d4e6018836111b9565b9150611d5982611d18565b602082019050919050565b60006020820190508181036000830152611d7d81611d41565b9050919050565b7f5469636b657453616c65206e6f74207365740000000000000000000000000000600082015250565b6000611dba6012836111b9565b9150611dc582611d84565b602082019050919050565b60006020820190508181036000830152611de981611dad565b9050919050565b7f5469636b65742055524920726571756972656400000000000000000000000000600082015250565b6000611e266013836111b9565b9150611e3182611df0565b602082019050919050565b60006020820190508181036000830152611e5581611e19565b9050919050565b60008190508160005260206000209050919050565b60006020601f8301049050919050565b600082821b905092915050565b600060088302611ebe7fffffffffffffffffffffffffffffffffffffffffffffffffffffffffffffffff82611e81565b611ec88683611e81565b95508019841693508086168417925050509392505050565b6000611efb611ef6611ef18461113c565b611339565b61113c565b9050919050565b6000819050919050565b611f1583611ee0565b611f29611f2182611f02565b848454611e8e565b825550505050565b600090565b611f3e611f31565b611f49818484611f0c565b505050565b5b81811015611f6d57611f62600082611f36565b600181019050611f4f565b5050565b601f821115611fb257611f8381611e5c565b611f8c84611e71565b81016020851015611f9b578190505b611faf611fa785611e71565b830182611f4e565b50505b505050565b600082821c905092915050565b6000611fd560001984600802611fb7565b1980831691505092915050565b6000611fee8383611fc4565b9150826002028217905092915050565b612007826111ae565b67ffffffffffffffff8111156120205761201f611471565b5b61202a8254611800565b612035828285611f71565b600060209050601f8311600181146120685760008415612056578287015190505b6120608582611fe2565b8655506120c8565b601f19841661207686611e5c565b60005b8281101561209e57848901518255600182019150602085019450602081019050612079565b868310156120bb57848901516120b7601f891682611fc4565b8355505b6001600288020188555050505b505050505050565b60006120db8261113c565b91507fffffffffffffffffffffffffffffffffffffffffffffffffffffffffffffffff820361210d5761210c611bb7565b5b600182019050919050565b600060408201905061212d600083018561119f565b61213a602083018461119f565b9392505050565b6000606082019050818103600083015261215b8186611205565b9050818103602083015261216f8185611205565b905061217e604083018461119f565b94935050505056fea2646970667358221220f0677ae93359f87c2134e83e60db6f0c83cd91c8a83e3b3e319751fe442536c264736f6c63430008140033",
  "linkReferences": {},
  "deployedLinkReferences": {}
}