{
  "_format": "hh-sol-artifact-1",
  "contractName": "TicketVerification",
  "sourceName": "contracts/TicketVerification.sol",
  "abi": [
    {
      "inputs": [
        {
          "internalType": "address",
          "name": "_ticketNFT",
          "type": "address"
        }
      ],
      "stateMutability": "nonpayable",
      "type": "constructor"
    },
    {
      "inputs": [],
      "name": "ticketNFT",
      "outputs": [
        {
          "internalType": "contract IERC721",
          "name": "",
          "type": "address"
        }
      ],
      "stateMutability": "view",
      "type": "function"
    },
    {
      "inputs": [
        {
          "internalType": "uint256",
          "name": "ticketId",
          "type": "uint256"
        },
        {
          "internalType": "address",
          "name": "owner",
          "type": "address"
        }
      ],
      "name": "verifyTicket",
      "outputs": [
        {
          "internalType": "bool",
          "name": "",
          "type": "bool"
        }
      ],
      "stateMutability": "view",
      "type": "function"
    }
  ],
  "bytecode": "0x608060405234801561001057600080fd5b506040516104cb3803806104cb833981810160405281019061003291906100db565b806000806101000a81548173ffffffffffffffffffffffffffffffffffffffff021916908373ffffffffffffffffffffffffffffffffffffffff16021790555050610108565b600080fd5b600073ffffffffffffffffffffffffffffffffffffffff82169050919050565b60006100a88261007d565b9050919050565b6100b88161009d565b81146100c357600080fd5b50565b6000815190506100d5816100af565b92915050565b6000602082840312156100f1576100f0610078565b5b60006100ff848285016100c6565b91505092915050565b6103b4806101176000396000f3fe608060405234801561001057600080fd5b50600436106100365760003560e01c8063b393391b1461003b578063f5851a8d14610059575b600080fd5b610043610089565b6040516100509190610208565b60405180910390f35b610073600480360381019061006e919061029c565b6100ad565b60405161008091906102f7565b60405180910390f35b60008054906101000a900473ffffffffffffffffffffffffffffffffffffffff1681565b60008060009054906101000a900473ffffffffffffffffffffffffffffffffffffffff1673ffffffffffffffffffffffffffffffffffffffff16636352211e846040518263ffffffff1660e01b81526004016101099190610321565b602060405180830381865afa92505050801561014357506040513d601f19601f820116820180604052508101906101409190610351565b60015b6101505760009050610183565b8273ffffffffffffffffffffffffffffffffffffffff168173ffffffffffffffffffffffffffffffffffffffff16149150505b92915050565b600073ffffffffffffffffffffffffffffffffffffffff82169050919050565b6000819050919050565b60006101ce6101c96101c484610189565b6101a9565b610189565b9050919050565b60006101e0826101b3565b9050919050565b60006101f2826101d5565b9050919050565b610202816101e7565b82525050565b600060208201905061021d60008301846101f9565b92915050565b600080fd5b6000819050919050565b61023b81610228565b811461024657600080fd5b50565b60008135905061025881610232565b92915050565b600061026982610189565b9050919050565b6102798161025e565b811461028457600080fd5b50565b60008135905061029681610270565b92915050565b600080604083850312156102b3576102b2610223565b5b60006102c185828601610249565b92505060206102d285828601610287565b9150509250929050565b60008115159050919050565b6102f1816102dc565b82525050565b600060208201905061030c60008301846102e8565b92915050565b61031b81610228565b82525050565b60006020820190506103366000830184610312565b92915050565b60008151905061034b81610270565b92915050565b60006020828403121561036757610366610223565b5b60006103758482850161033c565b9150509291505056fea2646970667358221220211517b7f675c8bde34fb589bddd77d5c2e556a9c95aaa92691f652cc9a2ff1164736f6c63430008140033",
  "linkReferences": {},
  "deployedLinkReferences": {}
}