{
  "_format": "hh-sol-artifact-1",
  "contractName": "TicketMarketplace",
  "sourceName": "contracts/TicketMarketplace.sol",
  "abi": [
    {
      "inputs": [
        {
          "internalType": "address",
          "name": "_ticketNFT",
          "type": "address"
        }
      ],
      "stateMutability": "nonpayable",
      "type": "constructor"
    },
    {
      "inputs": [],
      "name": "ReentrancyGuardReentrantCall",
      "type": "error"
    },
    {
      "anonymous": false,
      "inputs": [
        {
          "indexed": true,
          "internalType": "uint256",
          "name": "ticketId",
          "type": "uint256"
        },
        {
          "indexed": false,
          "internalType": "address",
          "name": "seller",
          "type": "address"
        },
        {
          "indexed": false,
          "internalType": "uint256",
          "name": "price",
          "type": "uint256"
        }
      ],
      "name": "TicketListed",
      "type": "event"
    },
    {
      "anonymous": false,
      "inputs": [
        {
          "indexed": true,
          "internalType": "uint256",
          "name": "ticketId",
          "type": "uint256"
        },
        {
          "indexed": false,
          "internalType": "address",
          "name": "buyer",
          "type": "address"
        }
      ],
      "name": "TicketSold",
      "type": "event"
    },
    {
      "inputs": [
        {
          "internalType": "uint256",
          "name": "ticketId",
          "type": "uint256"
        }
      ],
      "name": "buyTicket",
      "outputs": [],
      "stateMutability": "payable",
      "type": "function"
    },
    {
      "inputs": [
        {
          "internalType": "uint256",
          "name": "ticketId",
          "type": "uint256"
        },
        {
          "internalType": "uint256",
          "name": "price",
          "type": "uint256"
        }
      ],
      "name": "listTicket",
      "outputs": [],
      "stateMutability": "nonpayable",
      "type": "function"
    },
    {
      "inputs": [
        {
          "internalType": "uint256",
          "name": "",
          "type": "uint256"
        }
      ],
      "name": "listings",
      "outputs": [
        {
          "internalType": "uint256",
          "name": "ticketId",
          "type": "uint256"
        },
        {
          "internalType": "address",
          "name": "seller",
          "type": "address"
        },
        {
          "internalType": "uint256",
          "name": "price",
          "type": "uint256"
        }
      ],
      "stateMutability": "view",
      "type": "function"
    },
    {
      "inputs": [],
      "name": "ticketNFT",
      "outputs": [
        {
          "internalType": "contract IERC721",
          "name": "",
          "type": "address"
        }
      ],
      "stateMutability": "view",
      "type": "function"
    }
  ],
  "bytecode": "0x608060405234801561001057600080fd5b50604051610f5d380380610f5d833981810160405281019061003291906100e4565b600160008190555080600260006101000a81548173ffffffffffffffffffffffffffffffffffffffff021916908373ffffffffffffffffffffffffffffffffffffffff16021790555050610111565b600080fd5b600073ffffffffffffffffffffffffffffffffffffffff82169050919050565b60006100b182610086565b9050919050565b6100c1816100a6565b81146100cc57600080fd5b50565b6000815190506100de816100b8565b92915050565b6000602082840312156100fa576100f9610081565b5b6000610108848285016100cf565b91505092915050565b610e3d806101206000396000f3fe60806040526004361061003f5760003560e01c8063305a905a1461004457806367dd74ca1461006d578063b393391b14610089578063de74e57b146100b4575b600080fd5b34801561005057600080fd5b5061006b600480360381019061006691906108a9565b6100f3565b005b610087600480360381019061008291906108e9565b61048a565b005b34801561009557600080fd5b5061009e6107ae565b6040516100ab9190610995565b60405180910390f35b3480156100c057600080fd5b506100db60048036038101906100d691906108e9565b6107d4565b6040516100ea939291906109e0565b60405180910390f35b3373ffffffffffffffffffffffffffffffffffffffff16600260009054906101000a900473ffffffffffffffffffffffffffffffffffffffff1673ffffffffffffffffffffffffffffffffffffffff16636352211e846040518263ffffffff1660e01b81526004016101659190610a17565b602060405180830381865afa158015610182573d6000803e3d6000fd5b505050506040513d601f19601f820116820180604052508101906101a69190610a5e565b73ffffffffffffffffffffffffffffffffffffffff16146101fc576040517f08c379a00000000000000000000000000000000000000000000000000000000081526004016101f390610ae8565b60405180910390fd5b3073ffffffffffffffffffffffffffffffffffffffff16600260009054906101000a900473ffffffffffffffffffffffffffffffffffffffff1673ffffffffffffffffffffffffffffffffffffffff1663081812fc846040518263ffffffff1660e01b815260040161026e9190610a17565b602060405180830381865afa15801561028b573d6000803e3d6000fd5b505050506040513d601f19601f820116820180604052508101906102af9190610a5e565b73ffffffffffffffffffffffffffffffffffffffff16148061036b5750600260009054906101000a900473ffffffffffffffffffffffffffffffffffffffff1673ffffffffffffffffffffffffffffffffffffffff1663e985e9c533306040518363ffffffff1660e01b8152600401610329929190610b08565b602060405180830381865afa158015610346573d6000803e3d6000fd5b505050506040513d601f19601f8201168201806040525081019061036a9190610b69565b5b6103aa576040517f08c379a00000000000000000000000000000000000000000000000000000000081526004016103a190610be2565b60405180910390fd5b60405180606001604052808381526020013373ffffffffffffffffffffffffffffffffffffffff16815260200182815250600160008481526020019081526020016000206000820151816000015560208201518160010160006101000a81548173ffffffffffffffffffffffffffffffffffffffff021916908373ffffffffffffffffffffffffffffffffffffffff16021790555060408201518160020155905050817f22968ec3be3687b180f3544163a034b88d57b48159d9a7e9a1b610fdb2d05f80338360405161047e929190610c02565b60405180910390a25050565b61049261081e565b600060016000838152602001908152602001600020604051806060016040529081600082015481526020016001820160009054906101000a900473ffffffffffffffffffffffffffffffffffffffff1673ffffffffffffffffffffffffffffffffffffffff1673ffffffffffffffffffffffffffffffffffffffff1681526020016002820154815250509050600073ffffffffffffffffffffffffffffffffffffffff16816020015173ffffffffffffffffffffffffffffffffffffffff1603610591576040517f08c379a000000000000000000000000000000000000000000000000000000000815260040161058890610c77565b60405180910390fd5b806040015134146105d7576040517f08c379a00000000000000000000000000000000000000000000000000000000081526004016105ce90610ce3565b60405180910390fd5b6000816020015173ffffffffffffffffffffffffffffffffffffffff163460405161060190610d34565b60006040518083038185875af1925050503d806000811461063e576040519150601f19603f3d011682016040523d82523d6000602084013e610643565b606091505b5050905080610687576040517f08c379a000000000000000000000000000000000000000000000000000000000815260040161067e90610d95565b60405180910390fd5b600260009054906101000a900473ffffffffffffffffffffffffffffffffffffffff1673ffffffffffffffffffffffffffffffffffffffff166342842e0e836020015133866040518463ffffffff1660e01b81526004016106ea93929190610db5565b600060405180830381600087803b15801561070457600080fd5b505af1158015610718573d6000803e3d6000fd5b50505050600160008481526020019081526020016000206000808201600090556001820160006101000a81549073ffffffffffffffffffffffffffffffffffffffff021916905560028201600090555050827fe39135ae9a8f1caafd7e67a9dd98cef770246b0fe0178a0e41b622db0053499d336040516107999190610dec565b60405180910390a250506107ab610864565b50565b600260009054906101000a900473ffffffffffffffffffffffffffffffffffffffff1681565b60016020528060005260406000206000915090508060000154908060010160009054906101000a900473ffffffffffffffffffffffffffffffffffffffff16908060020154905083565b60026000540361085a576040517f3ee5aeb500000000000000000000000000000000000000000000000000000000815260040160405180910390fd5b6002600081905550565b6001600081905550565b600080fd5b6000819050919050565b61088681610873565b811461089157600080fd5b50565b6000813590506108a38161087d565b92915050565b600080604083850312156108c0576108bf61086e565b5b60006108ce85828601610894565b92505060206108df85828601610894565b9150509250929050565b6000602082840312156108ff576108fe61086e565b5b600061090d84828501610894565b91505092915050565b600073ffffffffffffffffffffffffffffffffffffffff82169050919050565b6000819050919050565b600061095b61095661095184610916565b610936565b610916565b9050919050565b600061096d82610940565b9050919050565b600061097f82610962565b9050919050565b61098f81610974565b82525050565b60006020820190506109aa6000830184610986565b92915050565b6109b981610873565b82525050565b60006109ca82610916565b9050919050565b6109da816109bf565b82525050565b60006060820190506109f560008301866109b0565b610a0260208301856109d1565b610a0f60408301846109b0565b949350505050565b6000602082019050610a2c60008301846109b0565b92915050565b610a3b816109bf565b8114610a4657600080fd5b50565b600081519050610a5881610a32565b92915050565b600060208284031215610a7457610a7361086e565b5b6000610a8284828501610a49565b91505092915050565b600082825260208201905092915050565b7f4e6f7420746865206f776e657200000000000000000000000000000000000000600082015250565b6000610ad2600d83610a8b565b9150610add82610a9c565b602082019050919050565b60006020820190508181036000830152610b0181610ac5565b9050919050565b6000604082019050610b1d60008301856109d1565b610b2a60208301846109d1565b9392505050565b60008115159050919050565b610b4681610b31565b8114610b5157600080fd5b50565b600081519050610b6381610b3d565b92915050565b600060208284031215610b7f57610b7e61086e565b5b6000610b8d84828501610b54565b91505092915050565b7f4e6f7420617070726f7665640000000000000000000000000000000000000000600082015250565b6000610bcc600c83610a8b565b9150610bd782610b96565b602082019050919050565b60006020820190508181036000830152610bfb81610bbf565b9050919050565b6000604082019050610c1760008301856109d1565b610c2460208301846109b0565b9392505050565b7f5469636b6574206e6f74206c6973746564000000000000000000000000000000600082015250565b6000610c61601183610a8b565b9150610c6c82610c2b565b602082019050919050565b60006020820190508181036000830152610c9081610c54565b9050919050565b7f496e636f72726563742070726963650000000000000000000000000000000000600082015250565b6000610ccd600f83610a8b565b9150610cd882610c97565b602082019050919050565b60006020820190508181036000830152610cfc81610cc0565b9050919050565b600081905092915050565b50565b6000610d1e600083610d03565b9150610d2982610d0e565b600082019050919050565b6000610d3f82610d11565b9150819050919050565b7f5061796d656e74206661696c6564000000000000000000000000000000000000600082015250565b6000610d7f600e83610a8b565b9150610d8a82610d49565b602082019050919050565b60006020820190508181036000830152610dae81610d72565b9050919050565b6000606082019050610dca60008301866109d1565b610dd760208301856109d1565b610de460408301846109b0565b949350505050565b6000602082019050610e0160008301846109d1565b9291505056fea2646970667358221220b98bf983cfd18e1792aef4334362a3a6b169573bf724023184b1e2cbd6af8de264736f6c63430008140033",
  "linkReferences": {},
  "deployedLinkReferences": {}
}