{
  "_format": "hh-sol-artifact-1",
  "contractName": "TicketSale",
  "sourceName": "contracts/TicketSale.sol",
  "abi": [
    {
      "inputs": [
        {
          "internalType": "address",
          "name": "_ticketNFT",
          "type": "address"
        },
        {
          "internalType": "address",
          "name": "_eventFactory",
          "type": "address"
        }
      ],
      "stateMutability": "nonpayable",
      "type": "constructor"
    },
    {
      "inputs": [],
      "name": "ReentrancyGuardReentrantCall",
      "type": "error"
    },
    {
      "anonymous": false,
      "inputs": [
        {
          "indexed": true,
          "internalType": "uint256",
          "name": "eventId",
          "type": "uint256"
        },
        {
          "indexed": true,
          "internalType": "address",
          "name": "buyer",
          "type": "address"
        },
        {
          "indexed": false,
          "internalType": "uint256",
          "name": "amount",
          "type": "uint256"
        }
      ],
      "name": "RefundClaimed",
      "type": "event"
    },
    {
      "anonymous": false,
      "inputs": [
        {
          "indexed": true,
          "internalType": "uint256",
          "name": "eventId",
          "type": "uint256"
        },
        {
          "indexed": true,
          "internalType": "address",
          "name": "buyer",
          "type": "address"
        },
        {
          "indexed": false,
          "internalType": "uint256",
          "name": "tokenId",
          "type": "uint256"
        }
      ],
      "name": "TicketPurchased",
      "type": "event"
    },
    {
      "inputs": [
        {
          "internalType": "uint256",
          "name": "eventId",
          "type": "uint256"
        },
        {
          "internalType": "uint256",
          "name": "amount",
          "type": "uint256"
        }
      ],
      "name": "buyTickets",
      "outputs": [],
      "stateMutability": "payable",
      "type": "function"
    },
    {
      "inputs": [
        {
          "internalType": "uint256",
          "name": "eventId",
          "type": "uint256"
        }
      ],
      "name": "claimRefund",
      "outputs": [],
      "stateMutability": "nonpayable",
      "type": "function"
    },
    {
      "inputs": [],
      "name": "eventFactory",
      "outputs": [
        {
          "internalType": "contract IEventFactory",
          "name": "",
          "type": "address"
        }
      ],
      "stateMutability": "view",
      "type": "function"
    },
    {
      "inputs": [
        {
          "internalType": "uint256",
          "name": "",
          "type": "uint256"
        }
      ],
      "name": "eventPrices",
      "outputs": [
        {
          "internalType": "uint256",
          "name": "",
          "type": "uint256"
        }
      ],
      "stateMutability": "view",
      "type": "function"
    },
    {
      "inputs": [
        {
          "internalType": "uint256",
          "name": "",
          "type": "uint256"
        },
        {
          "internalType": "address",
          "name": "",
          "type": "address"
        }
      ],
      "name": "refunds",
      "outputs": [
        {
          "internalType": "uint256",
          "name": "",
          "type": "uint256"
        }
      ],
      "stateMutability": "view",
      "type": "function"
    },
    {
      "inputs": [
        {
          "internalType": "uint256",
          "name": "eventId",
          "type": "uint256"
        },
        {
          "internalType": "uint256",
          "name": "price",
          "type": "uint256"
        }
      ],
      "name": "setEventPrice",
      "outputs": [],
      "stateMutability": "nonpayable",
      "type": "function"
    },
    {
      "inputs": [],
      "name": "ticketNFT",
      "outputs": [
        {
          "internalType": "contract TicketNFT",
          "name": "",
          "type": "address"
        }
      ],
      "stateMutability": "view",
      "type": "function"
    }
  ],
  "bytecode": "0x60806040523480156200001157600080fd5b5060405162001b1738038062001b17833981810160405281019062000037919062000133565b600160008190555081600160006101000a81548173ffffffffffffffffffffffffffffffffffffffff021916908373ffffffffffffffffffffffffffffffffffffffff16021790555080600260006101000a81548173ffffffffffffffffffffffffffffffffffffffff021916908373ffffffffffffffffffffffffffffffffffffffff16021790555050506200017a565b600080fd5b600073ffffffffffffffffffffffffffffffffffffffff82169050919050565b6000620000fb82620000ce565b9050919050565b6200010d81620000ee565b81146200011957600080fd5b50565b6000815190506200012d8162000102565b92915050565b600080604083850312156200014d576200014c620000c9565b5b60006200015d858286016200011c565b925050602062000170858286016200011c565b9150509250929050565b61198d806200018a6000396000f3fe6080604052600436106100705760003560e01c80636fdbd3f61161004e5780636fdbd3f6146101185780638627df4614610143578063b393391b1461015f578063dc68cba51461018a57610070565b8063454cc4bc146100755780635b7baf64146100b257806362ad6121146100db575b600080fd5b34801561008157600080fd5b5061009c60048036038101906100979190610e38565b6101b3565b6040516100a99190610e87565b60405180910390f35b3480156100be57600080fd5b506100d960048036038101906100d49190610ea2565b6101d8565b005b3480156100e757600080fd5b5061010260048036038101906100fd9190610ea2565b6104c1565b60405161010f9190610e87565b60405180910390f35b34801561012457600080fd5b5061012d6104d9565b60405161013a9190610f2e565b60405180910390f35b61015d60048036038101906101589190610f49565b6104ff565b005b34801561016b57600080fd5b506101746109f7565b6040516101819190610faa565b60405180910390f35b34801561019657600080fd5b506101b160048036038101906101ac9190610f49565b610a1d565b005b6004602052816000526040600020602052806000526040600020600091509150505481565b6101e0610b1f565b6000600260009054906101000a900473ffffffffffffffffffffffffffffffffffffffff1673ffffffffffffffffffffffffffffffffffffffff1663ec38d5a0836040518263ffffffff1660e01b815260040161023d9190610e87565b600060405180830381865afa15801561025a573d6000803e3d6000fd5b505050506040513d6000823e3d601f19601f820116820180604052508101906102839190611188565b95505050505050806102ca576040517f08c379a00000000000000000000000000000000000000000000000000000000081526004016102c19061128e565b60405180910390fd5b60006004600084815260200190815260200160002060003373ffffffffffffffffffffffffffffffffffffffff1673ffffffffffffffffffffffffffffffffffffffff16815260200190815260200160002054905060008111610362576040517f08c379a0000000000000000000000000000000000000000000000000000000008152600401610359906112fa565b60405180910390fd5b60006004600085815260200190815260200160002060003373ffffffffffffffffffffffffffffffffffffffff1673ffffffffffffffffffffffffffffffffffffffff1681526020019081526020016000208190555060003373ffffffffffffffffffffffffffffffffffffffff16826040516103de9061134b565b60006040518083038185875af1925050503d806000811461041b576040519150601f19603f3d011682016040523d82523d6000602084013e610420565b606091505b5050905080610464576040517f08c379a000000000000000000000000000000000000000000000000000000000815260040161045b906113ac565b60405180910390fd5b3373ffffffffffffffffffffffffffffffffffffffff16847ff3f402280ef0a7905e124aa621b65eaeb2725c343e8b36d398ed78c29daf285c846040516104ab9190610e87565b60405180910390a35050506104be610b65565b50565b60036020528060005260406000206000915090505481565b600260009054906101000a900473ffffffffffffffffffffffffffffffffffffffff1681565b610507610b1f565b600080600080600260009054906101000a900473ffffffffffffffffffffffffffffffffffffffff1673ffffffffffffffffffffffffffffffffffffffff1663ec38d5a0876040518263ffffffff1660e01b81526004016105689190610e87565b600060405180830381865afa158015610585573d6000803e3d6000fd5b505050506040513d6000823e3d601f19601f820116820180604052508101906105ae9190611188565b955050945094505093506000600260009054906101000a900473ffffffffffffffffffffffffffffffffffffffff1673ffffffffffffffffffffffffffffffffffffffff166315652d66886040518263ffffffff1660e01b81526004016106159190610e87565b600060405180830381865afa158015610632573d6000803e3d6000fd5b505050506040513d6000823e3d601f19601f8201168201806040525081019061065b91906113cc565b905086851461069f576040517f08c379a000000000000000000000000000000000000000000000000000000000815260040161069690611461565b60405180910390fd5b81156106e0576040517f08c379a00000000000000000000000000000000000000000000000000000000081526004016106d7906114cd565b60405180910390fd5b8386846106ed919061151c565b111561072e576040517f08c379a00000000000000000000000000000000000000000000000000000000081526004016107259061159c565b60405180910390fd5b600060036000898152602001908152602001600020549050868161075291906115bc565b341015610794576040517f08c379a000000000000000000000000000000000000000000000000000000000815260040161078b9061164a565b60405180910390fd5b60005b878110156108ee576000836107c2600184896107b3919061151c565b6107bd919061151c565b610b6f565b6040516020016107d39291906116fd565b60405160208183030381529060405290506000600160009054906101000a900473ffffffffffffffffffffffffffffffffffffffff1673ffffffffffffffffffffffffffffffffffffffff1663cf7a314133848e6040518463ffffffff1660e01b815260040161084593929190611774565b6020604051808303816000875af1158015610864573d6000803e3d6000fd5b505050506040513d601f19601f8201168201806040525081019061088891906117b2565b90503373ffffffffffffffffffffffffffffffffffffffff168b7fdbaaf4c87ce30816c961a81d110622a3227ede77953d4383d514ff88ab2e0fd3836040516108d19190610e87565b60405180910390a3505080806108e6906117df565b915050610797565b50600260009054906101000a900473ffffffffffffffffffffffffffffffffffffffff1673ffffffffffffffffffffffffffffffffffffffff1663880be9f189896040518363ffffffff1660e01b815260040161094c929190611827565b600060405180830381600087803b15801561096657600080fd5b505af115801561097a573d6000803e3d6000fd5b5050505034600460008a815260200190815260200160002060003373ffffffffffffffffffffffffffffffffffffffff1673ffffffffffffffffffffffffffffffffffffffff16815260200190815260200160002060008282546109de919061151c565b925050819055505050505050506109f3610b65565b5050565b600160009054906101000a900473ffffffffffffffffffffffffffffffffffffffff1681565b600260009054906101000a900473ffffffffffffffffffffffffffffffffffffffff1673ffffffffffffffffffffffffffffffffffffffff163373ffffffffffffffffffffffffffffffffffffffff1614610aad576040517f08c379a0000000000000000000000000000000000000000000000000000000008152600401610aa49061189c565b60405180910390fd5b6000600360008481526020019081526020016000205414610b03576040517f08c379a0000000000000000000000000000000000000000000000000000000008152600401610afa90611908565b60405180910390fd5b8060036000848152602001908152602001600020819055505050565b600260005403610b5b576040517f3ee5aeb500000000000000000000000000000000000000000000000000000000815260040160405180910390fd5b6002600081905550565b6001600081905550565b606060006001610b7e84610c3d565b01905060008167ffffffffffffffff811115610b9d57610b9c610ff5565b5b6040519080825280601f01601f191660200182016040528015610bcf5781602001600182028036833780820191505090505b509050600082602001820190505b600115610c32578080600190039150507f3031323334353637383961626364656600000000000000000000000000000000600a86061a8153600a8581610c2657610c25611928565b5b04945060008503610bdd575b819350505050919050565b600080600090507a184f03e93ff9f4daa797ed6e38ed64bf6a1f0100000000000000008310610c9b577a184f03e93ff9f4daa797ed6e38ed64bf6a1f0100000000000000008381610c9157610c90611928565b5b0492506040810190505b6d04ee2d6d415b85acef81000000008310610cd8576d04ee2d6d415b85acef81000000008381610cce57610ccd611928565b5b0492506020810190505b662386f26fc100008310610d0757662386f26fc100008381610cfd57610cfc611928565b5b0492506010810190505b6305f5e1008310610d30576305f5e1008381610d2657610d25611928565b5b0492506008810190505b6127108310610d55576127108381610d4b57610d4a611928565b5b0492506004810190505b60648310610d785760648381610d6e57610d6d611928565b5b0492506002810190505b600a8310610d87576001810190505b80915050919050565b6000604051905090565b600080fd5b600080fd5b6000819050919050565b610db781610da4565b8114610dc257600080fd5b50565b600081359050610dd481610dae565b92915050565b600073ffffffffffffffffffffffffffffffffffffffff82169050919050565b6000610e0582610dda565b9050919050565b610e1581610dfa565b8114610e2057600080fd5b50565b600081359050610e3281610e0c565b92915050565b60008060408385031215610e4f57610e4e610d9a565b5b6000610e5d85828601610dc5565b9250506020610e6e85828601610e23565b9150509250929050565b610e8181610da4565b82525050565b6000602082019050610e9c6000830184610e78565b92915050565b600060208284031215610eb857610eb7610d9a565b5b6000610ec684828501610dc5565b91505092915050565b6000819050919050565b6000610ef4610eef610eea84610dda565b610ecf565b610dda565b9050919050565b6000610f0682610ed9565b9050919050565b6000610f1882610efb565b9050919050565b610f2881610f0d565b82525050565b6000602082019050610f436000830184610f1f565b92915050565b60008060408385031215610f6057610f5f610d9a565b5b6000610f6e85828601610dc5565b9250506020610f7f85828601610dc5565b9150509250929050565b6000610f9482610efb565b9050919050565b610fa481610f89565b82525050565b6000602082019050610fbf6000830184610f9b565b92915050565b600081519050610fd481610dae565b92915050565b600080fd5b600080fd5b6000601f19601f8301169050919050565b7f4e487b7100000000000000000000000000000000000000000000000000000000600052604160045260246000fd5b61102d82610fe4565b810181811067ffffffffffffffff8211171561104c5761104b610ff5565b5b80604052505050565b600061105f610d90565b905061106b8282611024565b919050565b600067ffffffffffffffff82111561108b5761108a610ff5565b5b61109482610fe4565b9050602081019050919050565b60005b838110156110bf5780820151818401526020810190506110a4565b60008484015250505050565b60006110de6110d984611070565b611055565b9050828152602081018484840111156110fa576110f9610fdf565b5b6111058482856110a1565b509392505050565b600082601f83011261112257611121610fda565b5b81516111328482602086016110cb565b91505092915050565b60008151905061114a81610e0c565b92915050565b60008115159050919050565b61116581611150565b811461117057600080fd5b50565b6000815190506111828161115c565b92915050565b60008060008060008060c087890312156111a5576111a4610d9a565b5b60006111b389828a01610fc5565b965050602087015167ffffffffffffffff8111156111d4576111d3610d9f565b5b6111e089828a0161110d565b95505060406111f189828a01610fc5565b945050606061120289828a01610fc5565b935050608061121389828a0161113b565b92505060a061122489828a01611173565b9150509295509295509295565b600082825260208201905092915050565b7f4576656e74206e6f742063616e63656c65640000000000000000000000000000600082015250565b6000611278601283611231565b915061128382611242565b602082019050919050565b600060208201905081810360008301526112a78161126b565b9050919050565b7f4e6f20726566756e6420617661696c61626c6500000000000000000000000000600082015250565b60006112e4601383611231565b91506112ef826112ae565b602082019050919050565b60006020820190508181036000830152611313816112d7565b9050919050565b600081905092915050565b50565b600061133560008361131a565b915061134082611325565b600082019050919050565b600061135682611328565b9150819050919050565b7f526566756e64206661696c656400000000000000000000000000000000000000600082015250565b6000611396600d83611231565b91506113a182611360565b602082019050919050565b600060208201905081810360008301526113c581611389565b9050919050565b6000602082840312156113e2576113e1610d9a565b5b600082015167ffffffffffffffff811115611400576113ff610d9f565b5b61140c8482850161110d565b91505092915050565b7f4576656e7420646f6573206e6f74206578697374000000000000000000000000600082015250565b600061144b601483611231565b915061145682611415565b602082019050919050565b6000602082019050818103600083015261147a8161143e565b9050919050565b7f4576656e742069732063616e63656c6564000000000000000000000000000000600082015250565b60006114b7601183611231565b91506114c282611481565b602082019050919050565b600060208201905081810360008301526114e6816114aa565b9050919050565b7f4e487b7100000000000000000000000000000000000000000000000000000000600052601160045260246000fd5b600061152782610da4565b915061153283610da4565b925082820190508082111561154a576115496114ed565b5b92915050565b7f4e6f7420656e6f756768207469636b6574730000000000000000000000000000600082015250565b6000611586601283611231565b915061159182611550565b602082019050919050565b600060208201905081810360008301526115b581611579565b9050919050565b60006115c782610da4565b91506115d283610da4565b92508282026115e081610da4565b915082820484148315176115f7576115f66114ed565b5b5092915050565b7f496e73756666696369656e74207061796d656e74000000000000000000000000600082015250565b6000611634601483611231565b915061163f826115fe565b602082019050919050565b6000602082019050818103600083015261166381611627565b9050919050565b600081519050919050565b600081905092915050565b600061168b8261166a565b6116958185611675565b93506116a58185602086016110a1565b80840191505092915050565b7f2f00000000000000000000000000000000000000000000000000000000000000600082015250565b60006116e7600183611675565b91506116f2826116b1565b600182019050919050565b60006117098285611680565b9150611714826116da565b91506117208284611680565b91508190509392505050565b61173581610dfa565b82525050565b60006117468261166a565b6117508185611231565b93506117608185602086016110a1565b61176981610fe4565b840191505092915050565b6000606082019050611789600083018661172c565b818103602083015261179b818561173b565b90506117aa6040830184610e78565b949350505050565b6000602082840312156117c8576117c7610d9a565b5b60006117d684828501610fc5565b91505092915050565b60006117ea82610da4565b91507fffffffffffffffffffffffffffffffffffffffffffffffffffffffffffffffff820361181c5761181b6114ed565b5b600182019050919050565b600060408201905061183c6000830185610e78565b6118496020830184610e78565b9392505050565b7f4f6e6c79204576656e74466163746f7279000000000000000000000000000000600082015250565b6000611886601183611231565b915061189182611850565b602082019050919050565b600060208201905081810360008301526118b581611879565b9050919050565b7f507269636520616c726561647920736574000000000000000000000000000000600082015250565b60006118f2601183611231565b91506118fd826118bc565b602082019050919050565b60006020820190508181036000830152611921816118e5565b9050919050565b7f4e487b7100000000000000000000000000000000000000000000000000000000600052601260045260246000fdfea2646970667358221220211918c4095bd191227ca49f49b59232a512c03867cdb4878a75da86adb7d23764736f6c63430008140033",
  "linkReferences": {},
  "deployedLinkReferences": {}
}