{
  "_format": "hh-sol-artifact-1",
  "contractName": "TicketNFT",
  "sourceName": "contracts/TicketNFT.sol",
  "abi": [
    {
      "inputs": [],
      "stateMutability": "nonpayable",
      "type": "constructor"
    },
    {
      "inputs": [
        {
          "internalType": "address",
          "name": "sender",
          "type": "address"
        },
        {
          "internalType": "uint256",
          "name": "tokenId",
          "type": "uint256"
        },
        {
          "internalType": "address",
          "name": "owner",
          "type": "address"
        }
      ],
      "name": "ERC721IncorrectOwner",
      "type": "error"
    },
    {
      "inputs": [
        {
          "internalType": "address",
          "name": "operator",
          "type": "address"
        },
        {
          "internalType": "uint256",
          "name": "tokenId",
          "type": "uint256"
        }
      ],
      "name": "ERC721InsufficientApproval",
      "type": "error"
    },
    {
      "inputs": [
        {
          "internalType": "address",
          "name": "approver",
          "type": "address"
        }
      ],
      "name": "ERC721InvalidApprover",
      "type": "error"
    },
    {
      "inputs": [
        {
          "internalType": "address",
          "name": "operator",
          "type": "address"
        }
      ],
      "name": "ERC721InvalidOperator",
      "type": "error"
    },
    {
      "inputs": [
        {
          "internalType": "address",
          "name": "owner",
          "type": "address"
        }
      ],
      "name": "ERC721InvalidOwner",
      "type": "error"
    },
    {
      "inputs": [
        {
          "internalType": "address",
          "name": "receiver",
          "type": "address"
        }
      ],
      "name": "ERC721InvalidReceiver",
      "type": "error"
    },
    {
      "inputs": [
        {
          "internalType": "address",
          "name": "sender",
          "type": "address"
        }
      ],
      "name": "ERC721InvalidSender",
      "type": "error"
    },
    {
      "inputs": [
        {
          "internalType": "uint256",
          "name": "tokenId",
          "type": "uint256"
        }
      ],
      "name": "ERC721NonexistentToken",
      "type": "error"
    },
    {
      "inputs": [
        {
          "internalType": "address",
          "name": "owner",
          "type": "address"
        }
      ],
      "name": "OwnableInvalidOwner",
      "type": "error"
    },
    {
      "inputs": [
        {
          "internalType": "address",
          "name": "account",
          "type": "address"
        }
      ],
      "name": "OwnableUnauthorizedAccount",
      "type": "error"
    },
    {
      "anonymous": false,
      "inputs": [
        {
          "indexed": true,
          "internalType": "address",
          "name": "owner",
          "type": "address"
        },
        {
          "indexed": true,
          "internalType": "address",
          "name": "approved",
          "type": "address"
        },
        {
          "indexed": true,
          "internalType": "uint256",
          "name": "tokenId",
          "type": "uint256"
        }
      ],
      "name": "Approval",
      "type": "event"
    },
    {
      "anonymous": false,
      "inputs": [
        {
          "indexed": true,
          "internalType": "address",
          "name": "owner",
          "type": "address"
        },
        {
          "indexed": true,
          "internalType": "address",
          "name": "operator",
          "type": "address"
        },
        {
          "indexed": false,
          "internalType": "bool",
          "name": "approved",
          "type": "bool"
        }
      ],
      "name": "ApprovalForAll",
      "type": "event"
    },
    {
      "anonymous": false,
      "inputs": [
        {
          "indexed": false,
          "internalType": "uint256",
          "name": "_fromTokenId",
          "type": "uint256"
        },
        {
          "indexed": false,
          "internalType": "uint256",
          "name": "_toTokenId",
          "type": "uint256"
        }
      ],
      "name": "BatchMetadataUpdate",
      "type": "event"
    },
    {
      "anonymous": false,
      "inputs": [
        {
          "indexed": false,
          "internalType": "uint256",
          "name": "_tokenId",
          "type": "uint256"
        }
      ],
      "name": "MetadataUpdate",
      "type": "event"
    },
    {
      "anonymous": false,
      "inputs": [
        {
          "indexed": true,
          "internalType": "address",
          "name": "previousOwner",
          "type": "address"
        },
        {
          "indexed": true,
          "internalType": "address",
          "name": "newOwner",
          "type": "address"
        }
      ],
      "name": "OwnershipTransferred",
      "type": "event"
    },
    {
      "anonymous": false,
      "inputs": [
        {
          "indexed": true,
          "internalType": "address",
          "name": "from",
          "type": "address"
        },
        {
          "indexed": true,
          "internalType": "address",
          "name": "to",
          "type": "address"
        },
        {
          "indexed": true,
          "internalType": "uint256",
          "name": "tokenId",
          "type": "uint256"
        }
      ],
      "name": "Transfer",
      "type": "event"
    },
    {
      "inputs": [
        {
          "internalType": "address",
          "name": "to",
          "type": "address"
        },
        {
          "internalType": "uint256",
          "name": "tokenId",
          "type": "uint256"
        }
      ],
      "name": "approve",
      "outputs": [],
      "stateMutability": "nonpayable",
      "type": "function"
    },
    {
      "inputs": [
        {
          "internalType": "address",
          "name": "owner",
          "type": "address"
        }
      ],
      "name": "balanceOf",
      "outputs": [
        {
          "internalType": "uint256",
          "name": "",
          "type": "uint256"
        }
      ],
      "stateMutability": "view",
      "type": "function"
    },
    {
      "inputs": [
        {
          "internalType": "uint256",
          "name": "tokenId",
          "type": "uint256"
        }
      ],
      "name": "getApproved",
      "outputs": [
        {
          "internalType": "address",
          "name": "",
          "type": "address"
        }
      ],
      "stateMutability": "view",
      "type": "function"
    },
    {
      "inputs": [
        {
          "internalType": "uint256",
          "name": "tokenId",
          "type": "uint256"
        }
      ],
      "name": "getEventId",
      "outputs": [
        {
          "internalType": "uint256",
          "name": "",
          "type": "uint256"
        }
      ],
      "stateMutability": "view",
      "type": "function"
    },
    {
      "inputs": [
        {
          "internalType": "address",
          "name": "owner",
          "type": "address"
        },
        {
          "internalType": "address",
          "name": "operator",
          "type": "address"
        }
      ],
      "name": "isApprovedForAll",
      "outputs": [
        {
          "internalType": "bool",
          "name": "",
          "type": "bool"
        }
      ],
      "stateMutability": "view",
      "type": "function"
    },
    {
      "inputs": [
        {
          "internalType": "address",
          "name": "to",
          "type": "address"
        },
        {
          "internalType": "string",
          "name": "tokenURI",
          "type": "string"
        },
        {
          "internalType": "uint256",
          "name": "eventId",
          "type": "uint256"
        }
      ],
      "name": "mintTicket",
      "outputs": [
        {
          "internalType": "uint256",
          "name": "",
          "type": "uint256"
        }
      ],
      "stateMutability": "nonpayable",
      "type": "function"
    },
    {
      "inputs": [],
      "name": "name",
      "outputs": [
        {
          "internalType": "string",
          "name": "",
          "type": "string"
        }
      ],
      "stateMutability": "view",
      "type": "function"
    },
    {
      "inputs": [],
      "name": "owner",
      "outputs": [
        {
          "internalType": "address",
          "name": "",
          "type": "address"
        }
      ],
      "stateMutability": "view",
      "type": "function"
    },
    {
      "inputs": [
        {
          "internalType": "uint256",
          "name": "tokenId",
          "type": "uint256"
        }
      ],
      "name": "ownerOf",
      "outputs": [
        {
          "internalType": "address",
          "name": "",
          "type": "address"
        }
      ],
      "stateMutability": "view",
      "type": "function"
    },
    {
      "inputs": [],
      "name": "renounceOwnership",
      "outputs": [],
      "stateMutability": "nonpayable",
      "type": "function"
    },
    {
      "inputs": [
        {
          "internalType": "address",
          "name": "from",
          "type": "address"
        },
        {
          "internalType": "address",
          "name": "to",
          "type": "address"
        },
        {
          "internalType": "uint256",
          "name": "tokenId",
          "type": "uint256"
        }
      ],
      "name": "safeTransferFrom",
      "outputs": [],
      "stateMutability": "nonpayable",
      "type": "function"
    },
    {
      "inputs": [
        {
          "internalType": "address",
          "name": "from",
          "type": "address"
        },
        {
          "internalType": "address",
          "name": "to",
          "type": "address"
        },
        {
          "internalType": "uint256",
          "name": "tokenId",
          "type": "uint256"
        },
        {
          "internalType": "bytes",
          "name": "data",
          "type": "bytes"
        }
      ],
      "name": "safeTransferFrom",
      "outputs": [],
      "stateMutability": "nonpayable",
      "type": "function"
    },
    {
      "inputs": [
        {
          "internalType": "address",
          "name": "operator",
          "type": "address"
        },
        {
          "internalType": "bool",
          "name": "approved",
          "type": "bool"
        }
      ],
      "name": "setApprovalForAll",
      "outputs": [],
      "stateMutability": "nonpayable",
      "type": "function"
    },
    {
      "inputs": [
        {
          "internalType": "address",
          "name": "_ticketSale",
          "type": "address"
        }
      ],
      "name": "setTicketSale",
      "outputs": [],
      "stateMutability": "nonpayable",
      "type": "function"
    },
    {
      "inputs": [
        {
          "internalType": "bytes4",
          "name": "interfaceId",
          "type": "bytes4"
        }
      ],
      "name": "supportsInterface",
      "outputs": [
        {
          "internalType": "bool",
          "name": "",
          "type": "bool"
        }
      ],
      "stateMutability": "view",
      "type": "function"
    },
    {
      "inputs": [],
      "name": "symbol",
      "outputs": [
        {
          "internalType": "string",
          "name": "",
          "type": "string"
        }
      ],
      "stateMutability": "view",
      "type": "function"
    },
    {
      "inputs": [],
      "name": "ticketSale",
      "outputs": [
        {
          "internalType": "address",
          "name": "",
          "type": "address"
        }
      ],
      "stateMutability": "view",
      "type": "function"
    },
    {
      "inputs": [
        {
          "internalType": "uint256",
          "name": "",
          "type": "uint256"
        }
      ],
      "name": "tokenToEventId",
      "outputs": [
        {
          "internalType": "uint256",
          "name": "",
          "type": "uint256"
        }
      ],
      "stateMutability": "view",
      "type": "function"
    },
    {
      "inputs": [
        {
          "internalType": "uint256",
          "name": "tokenId",
          "type": "uint256"
        }
      ],
      "name": "tokenURI",
      "outputs": [
        {
          "internalType": "string",
          "name": "",
          "type": "string"
        }
      ],
      "stateMutability": "view",
      "type": "function"
    },
    {
      "inputs": [
        {
          "internalType": "address",
          "name": "from",
          "type": "address"
        },
        {
          "internalType": "address",
          "name": "to",
          "type": "address"
        },
        {
          "internalType": "uint256",
          "name": "tokenId",
          "type": "uint256"
        }
      ],
      "name": "transferFrom",
      "outputs": [],
      "stateMutability": "nonpayable",
      "type": "function"
    },
    {
      "inputs": [
        {
          "internalType": "address",
          "name": "newOwner",
          "type": "address"
        }
      ],
      "name": "transferOwnership",
      "outputs": [],
      "stateMutability": "nonpayable",
      "type": "function"
    }
  ],
  "bytecode": "0x60806040523480156200001157600080fd5b50336040518060400160405280600b81526020017f4576656e745469636b65740000000000000000000000000000000000000000008152506040518060400160405280600381526020017f45544b0000000000000000000000000000000000000000000000000000000000815250816000908162000090919062000472565b508060019081620000a2919062000472565b505050600073ffffffffffffffffffffffffffffffffffffffff168173ffffffffffffffffffffffffffffffffffffffff16036200011a5760006040517f1e4fbdf70000000000000000000000000000000000000000000000000000000081526004016200011191906200059e565b60405180910390fd5b6200012b816200013260201b60201c565b50620005bb565b6000600760009054906101000a900473ffffffffffffffffffffffffffffffffffffffff16905081600760006101000a81548173ffffffffffffffffffffffffffffffffffffffff021916908373ffffffffffffffffffffffffffffffffffffffff1602179055508173ffffffffffffffffffffffffffffffffffffffff168173ffffffffffffffffffffffffffffffffffffffff167f8be0079c531659141344cd1fd0a4f28419497f9722a3daafe3b4186f6b6457e060405160405180910390a35050565b600081519050919050565b7f4e487b7100000000000000000000000000000000000000000000000000000000600052604160045260246000fd5b7f4e487b7100000000000000000000000000000000000000000000000000000000600052602260045260246000fd5b600060028204905060018216806200027a57607f821691505b60208210810362000290576200028f62000232565b5b50919050565b60008190508160005260206000209050919050565b60006020601f8301049050919050565b600082821b905092915050565b600060088302620002fa7fffffffffffffffffffffffffffffffffffffffffffffffffffffffffffffffff82620002bb565b620003068683620002bb565b95508019841693508086168417925050509392505050565b6000819050919050565b6000819050919050565b6000620003536200034d62000347846200031e565b62000328565b6200031e565b9050919050565b6000819050919050565b6200036f8362000332565b620003876200037e826200035a565b848454620002c8565b825550505050565b600090565b6200039e6200038f565b620003ab81848462000364565b505050565b5b81811015620003d357620003c760008262000394565b600181019050620003b1565b5050565b601f8211156200042257620003ec8162000296565b620003f784620002ab565b8101602085101562000407578190505b6200041f6200041685620002ab565b830182620003b0565b50505b505050565b600082821c905092915050565b6000620004476000198460080262000427565b1980831691505092915050565b600062000462838362000434565b9150826002028217905092915050565b6200047d82620001f8565b67ffffffffffffffff81111562000499576200049862000203565b5b620004a5825462000261565b620004b2828285620003d7565b600060209050601f831160018114620004ea5760008415620004d5578287015190505b620004e1858262000454565b86555062000551565b601f198416620004fa8662000296565b60005b828110156200052457848901518255600182019150602085019450602081019050620004fd565b8683101562000544578489015162000540601f89168262000434565b8355505b6001600288020188555050505b505050505050565b600073ffffffffffffffffffffffffffffffffffffffff82169050919050565b6000620005868262000559565b9050919050565b620005988162000579565b82525050565b6000602082019050620005b560008301846200058d565b92915050565b612aad80620005cb6000396000f3fe608060405234801561001057600080fd5b50600436106101375760003560e01c806370a08231116100b8578063b88d4fde1161007c578063b88d4fde1461033a578063c3be559b14610356578063c87b56dd14610386578063cf7a3141146103b6578063e985e9c5146103e6578063f2fde38b1461041657610137565b806370a08231146102a8578063715018a6146102d85780638da5cb5b146102e257806395d89b4114610300578063a22cb4651461031e57610137565b806342842e0e116100ff57806342842e0e146101f25780634ee3ebb81461020e57806352d30f5a1461023e5780636352211e1461025c578063697a3d211461028c57610137565b806301ffc9a71461013c57806306fdde031461016c578063081812fc1461018a578063095ea7b3146101ba57806323b872dd146101d6575b600080fd5b61015660048036038101906101519190611dae565b610432565b6040516101639190611df6565b60405180910390f35b610174610493565b6040516101819190611ea1565b60405180910390f35b6101a4600480360381019061019f9190611ef9565b610525565b6040516101b19190611f67565b60405180910390f35b6101d460048036038101906101cf9190611fae565b610541565b005b6101f060048036038101906101eb9190611fee565b610557565b005b61020c60048036038101906102079190611fee565b610659565b005b61022860048036038101906102239190611ef9565b610679565b6040516102359190612050565b60405180910390f35b610246610691565b6040516102539190611f67565b60405180910390f35b61027660048036038101906102719190611ef9565b6106b7565b6040516102839190611f67565b60405180910390f35b6102a660048036038101906102a1919061206b565b6106c9565b005b6102c260048036038101906102bd919061206b565b6107a6565b6040516102cf9190612050565b60405180910390f35b6102e0610860565b005b6102ea610874565b6040516102f79190611f67565b60405180910390f35b61030861089e565b6040516103159190611ea1565b60405180910390f35b610338600480360381019061033391906120c4565b610930565b005b610354600480360381019061034f9190612239565b610946565b005b610370600480360381019061036b9190611ef9565b61096b565b60405161037d9190612050565b60405180910390f35b6103a0600480360381019061039b9190611ef9565b6109fe565b6040516103ad9190611ea1565b60405180910390f35b6103d060048036038101906103cb919061235d565b610b11565b6040516103dd9190612050565b60405180910390f35b61040060048036038101906103fb91906123cc565b610bf9565b60405161040d9190611df6565b60405180910390f35b610430600480360381019061042b919061206b565b610c8d565b005b6000634906490660e01b7bffffffffffffffffffffffffffffffffffffffffffffffffffffffff1916827bffffffffffffffffffffffffffffffffffffffffffffffffffffffff1916148061048c575061048b82610d13565b5b9050919050565b6060600080546104a29061243b565b80601f01602080910402602001604051908101604052809291908181526020018280546104ce9061243b565b801561051b5780601f106104f05761010080835404028352916020019161051b565b820191906000526020600020905b8154815290600101906020018083116104fe57829003601f168201915b5050505050905090565b600061053082610df5565b5061053a82610e7d565b9050919050565b610553828261054e610eba565b610ec2565b5050565b600073ffffffffffffffffffffffffffffffffffffffff168273ffffffffffffffffffffffffffffffffffffffff16036105c95760006040517f64a0ae920000000000000000000000000000000000000000000000000000000081526004016105c09190611f67565b60405180910390fd5b60006105dd83836105d8610eba565b610ed4565b90508373ffffffffffffffffffffffffffffffffffffffff168173ffffffffffffffffffffffffffffffffffffffff1614610653578382826040517f64283d7b00000000000000000000000000000000000000000000000000000000815260040161064a9392919061246c565b60405180910390fd5b50505050565b61067483838360405180602001604052806000815250610946565b505050565b60096020528060005260406000206000915090505481565b600a60009054906101000a900473ffffffffffffffffffffffffffffffffffffffff1681565b60006106c282610df5565b9050919050565b6106d16110ee565b600073ffffffffffffffffffffffffffffffffffffffff16600a60009054906101000a900473ffffffffffffffffffffffffffffffffffffffff1673ffffffffffffffffffffffffffffffffffffffff1614610762576040517f08c379a0000000000000000000000000000000000000000000000000000000008152600401610759906124ef565b60405180910390fd5b80600a60006101000a81548173ffffffffffffffffffffffffffffffffffffffff021916908373ffffffffffffffffffffffffffffffffffffffff16021790555050565b60008073ffffffffffffffffffffffffffffffffffffffff168273ffffffffffffffffffffffffffffffffffffffff16036108195760006040517f89c62b640000000000000000000000000000000000000000000000000000000081526004016108109190611f67565b60405180910390fd5b600360008373ffffffffffffffffffffffffffffffffffffffff1673ffffffffffffffffffffffffffffffffffffffff168152602001908152602001600020549050919050565b6108686110ee565b6108726000611175565b565b6000600760009054906101000a900473ffffffffffffffffffffffffffffffffffffffff16905090565b6060600180546108ad9061243b565b80601f01602080910402602001604051908101604052809291908181526020018280546108d99061243b565b80156109265780601f106108fb57610100808354040283529160200191610926565b820191906000526020600020905b81548152906001019060200180831161090957829003601f168201915b5050505050905090565b61094261093b610eba565b838361123b565b5050565b610951848484610557565b61096561095c610eba565b858585856113aa565b50505050565b60008073ffffffffffffffffffffffffffffffffffffffff1661098d836106b7565b73ffffffffffffffffffffffffffffffffffffffff16036109e3576040517f08c379a00000000000000000000000000000000000000000000000000000000081526004016109da9061255b565b60405180910390fd5b60096000838152602001908152602001600020549050919050565b6060610a0982610df5565b506000600660008481526020019081526020016000208054610a2a9061243b565b80601f0160208091040260200160405190810160405280929190818152602001828054610a569061243b565b8015610aa35780601f10610a7857610100808354040283529160200191610aa3565b820191906000526020600020905b815481529060010190602001808311610a8657829003601f168201915b505050505090506000610ab461155b565b90506000815103610ac9578192505050610b0c565b600082511115610afe578082604051602001610ae69291906125b7565b60405160208183030381529060405292505050610b0c565b610b0784611572565b925050505b919050565b6000600a60009054906101000a900473ffffffffffffffffffffffffffffffffffffffff1673ffffffffffffffffffffffffffffffffffffffff163373ffffffffffffffffffffffffffffffffffffffff1614610ba3576040517f08c379a0000000000000000000000000000000000000000000000000000000008152600401610b9a90612627565b60405180910390fd5b60006008549050610bb485826115db565b610bbe81856116d4565b82600960008381526020019081526020016000208190555060086000815480929190610be990612676565b9190505550809150509392505050565b6000600560008473ffffffffffffffffffffffffffffffffffffffff1673ffffffffffffffffffffffffffffffffffffffff16815260200190815260200160002060008373ffffffffffffffffffffffffffffffffffffffff1673ffffffffffffffffffffffffffffffffffffffff16815260200190815260200160002060009054906101000a900460ff16905092915050565b610c956110ee565b600073ffffffffffffffffffffffffffffffffffffffff168173ffffffffffffffffffffffffffffffffffffffff1603610d075760006040517f1e4fbdf7000000000000000000000000000000000000000000000000000000008152600401610cfe9190611f67565b60405180910390fd5b610d1081611175565b50565b60007f80ac58cd000000000000000000000000000000000000000000000000000000007bffffffffffffffffffffffffffffffffffffffffffffffffffffffff1916827bffffffffffffffffffffffffffffffffffffffffffffffffffffffff19161480610dde57507f5b5e139f000000000000000000000000000000000000000000000000000000007bffffffffffffffffffffffffffffffffffffffffffffffffffffffff1916827bffffffffffffffffffffffffffffffffffffffffffffffffffffffff1916145b80610dee5750610ded82611730565b5b9050919050565b600080610e018361179a565b9050600073ffffffffffffffffffffffffffffffffffffffff168173ffffffffffffffffffffffffffffffffffffffff1603610e7457826040517f7e273289000000000000000000000000000000000000000000000000000000008152600401610e6b9190612050565b60405180910390fd5b80915050919050565b60006004600083815260200190815260200160002060009054906101000a900473ffffffffffffffffffffffffffffffffffffffff169050919050565b600033905090565b610ecf83838360016117d7565b505050565b600080610ee08461179a565b9050600073ffffffffffffffffffffffffffffffffffffffff168373ffffffffffffffffffffffffffffffffffffffff1614610f2257610f2181848661199c565b5b600073ffffffffffffffffffffffffffffffffffffffff168173ffffffffffffffffffffffffffffffffffffffff1614610fb357610f646000856000806117d7565b6001600360008373ffffffffffffffffffffffffffffffffffffffff1673ffffffffffffffffffffffffffffffffffffffff168152602001908152602001600020600082825403925050819055505b600073ffffffffffffffffffffffffffffffffffffffff168573ffffffffffffffffffffffffffffffffffffffff1614611036576001600360008773ffffffffffffffffffffffffffffffffffffffff1673ffffffffffffffffffffffffffffffffffffffff168152602001908152602001600020600082825401925050819055505b846002600086815260200190815260200160002060006101000a81548173ffffffffffffffffffffffffffffffffffffffff021916908373ffffffffffffffffffffffffffffffffffffffff160217905550838573ffffffffffffffffffffffffffffffffffffffff168273ffffffffffffffffffffffffffffffffffffffff167fddf252ad1be2c89b69c2b068fc378daa952ba7f163c4a11628f55a4df523b3ef60405160405180910390a4809150509392505050565b6110f6610eba565b73ffffffffffffffffffffffffffffffffffffffff16611114610874565b73ffffffffffffffffffffffffffffffffffffffff161461117357611137610eba565b6040517f118cdaa700000000000000000000000000000000000000000000000000000000815260040161116a9190611f67565b60405180910390fd5b565b6000600760009054906101000a900473ffffffffffffffffffffffffffffffffffffffff16905081600760006101000a81548173ffffffffffffffffffffffffffffffffffffffff021916908373ffffffffffffffffffffffffffffffffffffffff1602179055508173ffffffffffffffffffffffffffffffffffffffff168173ffffffffffffffffffffffffffffffffffffffff167f8be0079c531659141344cd1fd0a4f28419497f9722a3daafe3b4186f6b6457e060405160405180910390a35050565b600073ffffffffffffffffffffffffffffffffffffffff168273ffffffffffffffffffffffffffffffffffffffff16036112ac57816040517f5b08ba180000000000000000000000000000000000000000000000000000000081526004016112a39190611f67565b60405180910390fd5b80600560008573ffffffffffffffffffffffffffffffffffffffff1673ffffffffffffffffffffffffffffffffffffffff16815260200190815260200160002060008473ffffffffffffffffffffffffffffffffffffffff1673ffffffffffffffffffffffffffffffffffffffff16815260200190815260200160002060006101000a81548160ff0219169083151502179055508173ffffffffffffffffffffffffffffffffffffffff168373ffffffffffffffffffffffffffffffffffffffff167f17307eab39ab6107e8899845ad3d59bd9653f200f220920489ca2b5937696c318360405161139d9190611df6565b60405180910390a3505050565b60008373ffffffffffffffffffffffffffffffffffffffff163b1115611554578273ffffffffffffffffffffffffffffffffffffffff1663150b7a02868685856040518563ffffffff1660e01b81526004016114099493929190612713565b6020604051808303816000875af192505050801561144557506040513d601f19601f820116820180604052508101906114429190612774565b60015b6114c9573d8060008114611475576040519150601f19603f3d011682016040523d82523d6000602084013e61147a565b606091505b5060008151036114c157836040517f64a0ae920000000000000000000000000000000000000000000000000000000081526004016114b89190611f67565b60405180910390fd5b805181602001fd5b63150b7a0260e01b7bffffffffffffffffffffffffffffffffffffffffffffffffffffffff1916817bffffffffffffffffffffffffffffffffffffffffffffffffffffffff19161461155257836040517f64a0ae920000000000000000000000000000000000000000000000000000000081526004016115499190611f67565b60405180910390fd5b505b5050505050565b606060405180602001604052806000815250905090565b606061157d82610df5565b50600061158861155b565b905060008151116115a857604051806020016040528060008152506115d3565b806115b284611a60565b6040516020016115c39291906125b7565b6040516020818303038152906040525b915050919050565b600073ffffffffffffffffffffffffffffffffffffffff168273ffffffffffffffffffffffffffffffffffffffff160361164d5760006040517f64a0ae920000000000000000000000000000000000000000000000000000000081526004016116449190611f67565b60405180910390fd5b600061165b83836000610ed4565b9050600073ffffffffffffffffffffffffffffffffffffffff168173ffffffffffffffffffffffffffffffffffffffff16146116cf5760006040517f73c6ac6e0000000000000000000000000000000000000000000000000000000081526004016116c69190611f67565b60405180910390fd5b505050565b806006600084815260200190815260200160002090816116f4919061294d565b507ff8e1a15aba9398e019f0b49df1a4fde98ee17ae345cb5f6b5e2c27f5033e8ce7826040516117249190612050565b60405180910390a15050565b60007f01ffc9a7000000000000000000000000000000000000000000000000000000007bffffffffffffffffffffffffffffffffffffffffffffffffffffffff1916827bffffffffffffffffffffffffffffffffffffffffffffffffffffffff1916149050919050565b60006002600083815260200190815260200160002060009054906101000a900473ffffffffffffffffffffffffffffffffffffffff169050919050565b80806118105750600073ffffffffffffffffffffffffffffffffffffffff168273ffffffffffffffffffffffffffffffffffffffff1614155b1561194457600061182084610df5565b9050600073ffffffffffffffffffffffffffffffffffffffff168373ffffffffffffffffffffffffffffffffffffffff161415801561188b57508273ffffffffffffffffffffffffffffffffffffffff168173ffffffffffffffffffffffffffffffffffffffff1614155b801561189e575061189c8184610bf9565b155b156118e057826040517fa9fbf51f0000000000000000000000000000000000000000000000000000000081526004016118d79190611f67565b60405180910390fd5b811561194257838573ffffffffffffffffffffffffffffffffffffffff168273ffffffffffffffffffffffffffffffffffffffff167f8c5be1e5ebec7d5bd14f71427d1e84f3dd0314c0f7b2291e5b200ac8c7c3b92560405160405180910390a45b505b836004600085815260200190815260200160002060006101000a81548173ffffffffffffffffffffffffffffffffffffffff021916908373ffffffffffffffffffffffffffffffffffffffff16021790555050505050565b6119a7838383611b2e565b611a5b57600073ffffffffffffffffffffffffffffffffffffffff168373ffffffffffffffffffffffffffffffffffffffff1603611a1c57806040517f7e273289000000000000000000000000000000000000000000000000000000008152600401611a139190612050565b60405180910390fd5b81816040517f177e802f000000000000000000000000000000000000000000000000000000008152600401611a52929190612a1f565b60405180910390fd5b505050565b606060006001611a6f84611bef565b01905060008167ffffffffffffffff811115611a8e57611a8d61210e565b5b6040519080825280601f01601f191660200182016040528015611ac05781602001600182028036833780820191505090505b509050600082602001820190505b600115611b23578080600190039150507f3031323334353637383961626364656600000000000000000000000000000000600a86061a8153600a8581611b1757611b16612a48565b5b04945060008503611ace575b819350505050919050565b60008073ffffffffffffffffffffffffffffffffffffffff168373ffffffffffffffffffffffffffffffffffffffff1614158015611be657508273ffffffffffffffffffffffffffffffffffffffff168473ffffffffffffffffffffffffffffffffffffffff161480611ba75750611ba68484610bf9565b5b80611be557508273ffffffffffffffffffffffffffffffffffffffff16611bcd83610e7d565b73ffffffffffffffffffffffffffffffffffffffff16145b5b90509392505050565b600080600090507a184f03e93ff9f4daa797ed6e38ed64bf6a1f0100000000000000008310611c4d577a184f03e93ff9f4daa797ed6e38ed64bf6a1f0100000000000000008381611c4357611c42612a48565b5b0492506040810190505b6d04ee2d6d415b85acef81000000008310611c8a576d04ee2d6d415b85acef81000000008381611c8057611c7f612a48565b5b0492506020810190505b662386f26fc100008310611cb957662386f26fc100008381611caf57611cae612a48565b5b0492506010810190505b6305f5e1008310611ce2576305f5e1008381611cd857611cd7612a48565b5b0492506008810190505b6127108310611d07576127108381611cfd57611cfc612a48565b5b0492506004810190505b60648310611d2a5760648381611d2057611d1f612a48565b5b0492506002810190505b600a8310611d39576001810190505b80915050919050565b6000604051905090565b600080fd5b600080fd5b60007fffffffff0000000000000000000000000000000000000000000000000000000082169050919050565b611d8b81611d56565b8114611d9657600080fd5b50565b600081359050611da881611d82565b92915050565b600060208284031215611dc457611dc3611d4c565b5b6000611dd284828501611d99565b91505092915050565b60008115159050919050565b611df081611ddb565b82525050565b6000602082019050611e0b6000830184611de7565b92915050565b600081519050919050565b600082825260208201905092915050565b60005b83811015611e4b578082015181840152602081019050611e30565b60008484015250505050565b6000601f19601f8301169050919050565b6000611e7382611e11565b611e7d8185611e1c565b9350611e8d818560208601611e2d565b611e9681611e57565b840191505092915050565b60006020820190508181036000830152611ebb8184611e68565b905092915050565b6000819050919050565b611ed681611ec3565b8114611ee157600080fd5b50565b600081359050611ef381611ecd565b92915050565b600060208284031215611f0f57611f0e611d4c565b5b6000611f1d84828501611ee4565b91505092915050565b600073ffffffffffffffffffffffffffffffffffffffff82169050919050565b6000611f5182611f26565b9050919050565b611f6181611f46565b82525050565b6000602082019050611f7c6000830184611f58565b92915050565b611f8b81611f46565b8114611f9657600080fd5b50565b600081359050611fa881611f82565b92915050565b60008060408385031215611fc557611fc4611d4c565b5b6000611fd385828601611f99565b9250506020611fe485828601611ee4565b9150509250929050565b60008060006060848603121561200757612006611d4c565b5b600061201586828701611f99565b935050602061202686828701611f99565b925050604061203786828701611ee4565b9150509250925092565b61204a81611ec3565b82525050565b60006020820190506120656000830184612041565b92915050565b60006020828403121561208157612080611d4c565b5b600061208f84828501611f99565b91505092915050565b6120a181611ddb565b81146120ac57600080fd5b50565b6000813590506120be81612098565b92915050565b600080604083850312156120db576120da611d4c565b5b60006120e985828601611f99565b92505060206120fa858286016120af565b9150509250929050565b600080fd5b600080fd5b7f4e487b7100000000000000000000000000000000000000000000000000000000600052604160045260246000fd5b61214682611e57565b810181811067ffffffffffffffff821117156121655761216461210e565b5b80604052505050565b6000612178611d42565b9050612184828261213d565b919050565b600067ffffffffffffffff8211156121a4576121a361210e565b5b6121ad82611e57565b9050602081019050919050565b82818337600083830152505050565b60006121dc6121d784612189565b61216e565b9050828152602081018484840111156121f8576121f7612109565b5b6122038482856121ba565b509392505050565b600082601f8301126122205761221f612104565b5b81356122308482602086016121c9565b91505092915050565b6000806000806080858703121561225357612252611d4c565b5b600061226187828801611f99565b945050602061227287828801611f99565b935050604061228387828801611ee4565b925050606085013567ffffffffffffffff8111156122a4576122a3611d51565b5b6122b08782880161220b565b91505092959194509250565b600067ffffffffffffffff8211156122d7576122d661210e565b5b6122e082611e57565b9050602081019050919050565b60006123006122fb846122bc565b61216e565b90508281526020810184848401111561231c5761231b612109565b5b6123278482856121ba565b509392505050565b600082601f83011261234457612343612104565b5b81356123548482602086016122ed565b91505092915050565b60008060006060848603121561237657612375611d4c565b5b600061238486828701611f99565b935050602084013567ffffffffffffffff8111156123a5576123a4611d51565b5b6123b18682870161232f565b92505060406123c286828701611ee4565b9150509250925092565b600080604083850312156123e3576123e2611d4c565b5b60006123f185828601611f99565b925050602061240285828601611f99565b9150509250929050565b7f4e487b7100000000000000000000000000000000000000000000000000000000600052602260045260246000fd5b6000600282049050600182168061245357607f821691505b6020821081036124665761246561240c565b5b50919050565b60006060820190506124816000830186611f58565b61248e6020830185612041565b61249b6040830184611f58565b949350505050565b7f5469636b657453616c6520616c72656164792073657400000000000000000000600082015250565b60006124d9601683611e1c565b91506124e4826124a3565b602082019050919050565b60006020820190508181036000830152612508816124cc565b9050919050565b7f546f6b656e20646f6573206e6f74206578697374000000000000000000000000600082015250565b6000612545601483611e1c565b91506125508261250f565b602082019050919050565b6000602082019050818103600083015261257481612538565b9050919050565b600081905092915050565b600061259182611e11565b61259b818561257b565b93506125ab818560208601611e2d565b80840191505092915050565b60006125c38285612586565b91506125cf8284612586565b91508190509392505050565b7f4f6e6c79205469636b657453616c650000000000000000000000000000000000600082015250565b6000612611600f83611e1c565b915061261c826125db565b602082019050919050565b6000602082019050818103600083015261264081612604565b9050919050565b7f4e487b7100000000000000000000000000000000000000000000000000000000600052601160045260246000fd5b600061268182611ec3565b91507fffffffffffffffffffffffffffffffffffffffffffffffffffffffffffffffff82036126b3576126b2612647565b5b600182019050919050565b600081519050919050565b600082825260208201905092915050565b60006126e5826126be565b6126ef81856126c9565b93506126ff818560208601611e2d565b61270881611e57565b840191505092915050565b60006080820190506127286000830187611f58565b6127356020830186611f58565b6127426040830185612041565b818103606083015261275481846126da565b905095945050505050565b60008151905061276e81611d82565b92915050565b60006020828403121561278a57612789611d4c565b5b60006127988482850161275f565b91505092915050565b60008190508160005260206000209050919050565b60006020601f8301049050919050565b600082821b905092915050565b6000600883026128037fffffffffffffffffffffffffffffffffffffffffffffffffffffffffffffffff826127c6565b61280d86836127c6565b95508019841693508086168417925050509392505050565b6000819050919050565b600061284a61284561284084611ec3565b612825565b611ec3565b9050919050565b6000819050919050565b6128648361282f565b61287861287082612851565b8484546127d3565b825550505050565b600090565b61288d612880565b61289881848461285b565b505050565b5b818110156128bc576128b1600082612885565b60018101905061289e565b5050565b601f821115612901576128d2816127a1565b6128db846127b6565b810160208510156128ea578190505b6128fe6128f6856127b6565b83018261289d565b50505b505050565b600082821c905092915050565b600061292460001984600802612906565b1980831691505092915050565b600061293d8383612913565b9150826002028217905092915050565b61295682611e11565b67ffffffffffffffff81111561296f5761296e61210e565b5b612979825461243b565b6129848282856128c0565b600060209050601f8311600181146129b757600084156129a5578287015190505b6129af8582612931565b865550612a17565b601f1984166129c5866127a1565b60005b828110156129ed578489015182556001820191506020850194506020810190506129c8565b86831015612a0a5784890151612a06601f891682612913565b8355505b6001600288020188555050505b505050505050565b6000604082019050612a346000830185611f58565b612a416020830184612041565b9392505050565b7f4e487b7100000000000000000000000000000000000000000000000000000000600052601260045260246000fdfea2646970667358221220c728a34434a2feb09ba601451e0975978f46ab37f352dc2820d21896759b205964736f6c63430008140033",
  "linkReferences": {},
  "deployedLinkReferences": {}
}